{
  "_format": "hh-sol-artifact-1",
  "contractName": "FutsalBookingNFT",
  "sourceName": "contracts/FutsalBookingNFT.sol",
  "abi": [
    {
      "inputs": [],
      "stateMutability": "nonpayable",
      "type": "constructor"
    },
    {
      "inputs": [
        {
          "internalType": "address",
          "name": "sender",
          "type": "address"
        },
        {
          "internalType": "uint256",
          "name": "tokenId",
          "type": "uint256"
        },
        {
          "internalType": "address",
          "name": "owner",
          "type": "address"
        }
      ],
      "name": "ERC721IncorrectOwner",
      "type": "error"
    },
    {
      "inputs": [
        {
          "internalType": "address",
          "name": "operator",
          "type": "address"
        },
        {
          "internalType": "uint256",
          "name": "tokenId",
          "type": "uint256"
        }
      ],
      "name": "ERC721InsufficientApproval",
      "type": "error"
    },
    {
      "inputs": [
        {
          "internalType": "address",
          "name": "approver",
          "type": "address"
        }
      ],
      "name": "ERC721InvalidApprover",
      "type": "error"
    },
    {
      "inputs": [
        {
          "internalType": "address",
          "name": "operator",
          "type": "address"
        }
      ],
      "name": "ERC721InvalidOperator",
      "type": "error"
    },
    {
      "inputs": [
        {
          "internalType": "address",
          "name": "owner",
          "type": "address"
        }
      ],
      "name": "ERC721InvalidOwner",
      "type": "error"
    },
    {
      "inputs": [
        {
          "internalType": "address",
          "name": "receiver",
          "type": "address"
        }
      ],
      "name": "ERC721InvalidReceiver",
      "type": "error"
    },
    {
      "inputs": [
        {
          "internalType": "address",
          "name": "sender",
          "type": "address"
        }
      ],
      "name": "ERC721InvalidSender",
      "type": "error"
    },
    {
      "inputs": [
        {
          "internalType": "uint256",
          "name": "tokenId",
          "type": "uint256"
        }
      ],
      "name": "ERC721NonexistentToken",
      "type": "error"
    },
    {
      "inputs": [
        {
          "internalType": "address",
          "name": "owner",
          "type": "address"
        }
      ],
      "name": "OwnableInvalidOwner",
      "type": "error"
    },
    {
      "inputs": [
        {
          "internalType": "address",
          "name": "account",
          "type": "address"
        }
      ],
      "name": "OwnableUnauthorizedAccount",
      "type": "error"
    },
    {
      "inputs": [],
      "name": "ReentrancyGuardReentrantCall",
      "type": "error"
    },
    {
      "anonymous": false,
      "inputs": [
        {
          "indexed": true,
          "internalType": "address",
          "name": "owner",
          "type": "address"
        },
        {
          "indexed": true,
          "internalType": "address",
          "name": "approved",
          "type": "address"
        },
        {
          "indexed": true,
          "internalType": "uint256",
          "name": "tokenId",
          "type": "uint256"
        }
      ],
      "name": "Approval",
      "type": "event"
    },
    {
      "anonymous": false,
      "inputs": [
        {
          "indexed": true,
          "internalType": "address",
          "name": "owner",
          "type": "address"
        },
        {
          "indexed": true,
          "internalType": "address",
          "name": "operator",
          "type": "address"
        },
        {
          "indexed": false,
          "internalType": "bool",
          "name": "approved",
          "type": "bool"
        }
      ],
      "name": "ApprovalForAll",
      "type": "event"
    },
    {
      "anonymous": false,
      "inputs": [
        {
          "indexed": true,
          "internalType": "uint256",
          "name": "bookingId",
          "type": "uint256"
        },
        {
          "indexed": true,
          "internalType": "uint256",
          "name": "courtId",
          "type": "uint256"
        },
        {
          "indexed": true,
          "internalType": "uint256",
          "name": "timestamp",
          "type": "uint256"
        },
        {
          "indexed": false,
          "internalType": "address",
          "name": "renter",
          "type": "address"
        }
      ],
      "name": "BookingConfirmed",
      "type": "event"
    },
    {
      "anonymous": false,
      "inputs": [
        {
          "indexed": true,
          "internalType": "uint256",
          "name": "courtId",
          "type": "uint256"
        },
        {
          "indexed": false,
          "internalType": "string",
          "name": "name",
          "type": "string"
        },
        {
          "indexed": false,
          "internalType": "uint256",
          "name": "pricePerHour",
          "type": "uint256"
        }
      ],
      "name": "CourtAdded",
      "type": "event"
    },
    {
      "anonymous": false,
      "inputs": [
        {
          "indexed": true,
          "internalType": "address",
          "name": "admin",
          "type": "address"
        },
        {
          "indexed": false,
          "internalType": "uint256",
          "name": "amount",
          "type": "uint256"
        }
      ],
      "name": "FundsWithdrawn",
      "type": "event"
    },
    {
      "anonymous": false,
      "inputs": [
        {
          "indexed": true,
          "internalType": "address",
          "name": "previousOwner",
          "type": "address"
        },
        {
          "indexed": true,
          "internalType": "address",
          "name": "newOwner",
          "type": "address"
        }
      ],
      "name": "OwnershipTransferred",
      "type": "event"
    },
    {
      "anonymous": false,
      "inputs": [
        {
          "indexed": true,
          "internalType": "address",
          "name": "from",
          "type": "address"
        },
        {
          "indexed": true,
          "internalType": "address",
          "name": "to",
          "type": "address"
        },
        {
          "indexed": true,
          "internalType": "uint256",
          "name": "tokenId",
          "type": "uint256"
        }
      ],
      "name": "Transfer",
      "type": "event"
    },
    {
      "inputs": [
        {
          "internalType": "string",
          "name": "_name",
          "type": "string"
        },
        {
          "internalType": "uint256",
          "name": "_pricePerHour",
          "type": "uint256"
        }
      ],
      "name": "addCourt",
      "outputs": [],
      "stateMutability": "nonpayable",
      "type": "function"
    },
    {
      "inputs": [
        {
          "internalType": "address",
          "name": "to",
          "type": "address"
        },
        {
          "internalType": "uint256",
          "name": "tokenId",
          "type": "uint256"
        }
      ],
      "name": "approve",
      "outputs": [],
      "stateMutability": "nonpayable",
      "type": "function"
    },
    {
      "inputs": [
        {
          "internalType": "address",
          "name": "owner",
          "type": "address"
        }
      ],
      "name": "balanceOf",
      "outputs": [
        {
          "internalType": "uint256",
          "name": "",
          "type": "uint256"
        }
      ],
      "stateMutability": "view",
      "type": "function"
    },
    {
      "inputs": [
        {
          "internalType": "uint256",
          "name": "_courtId",
          "type": "uint256"
        },
        {
          "internalType": "uint256",
          "name": "_timestamp",
          "type": "uint256"
        }
      ],
      "name": "bookCourt",
      "outputs": [],
      "stateMutability": "payable",
      "type": "function"
    },
    {
      "inputs": [],
      "name": "bookingCounter",
      "outputs": [
        {
          "internalType": "uint256",
          "name": "",
          "type": "uint256"
        }
      ],
      "stateMutability": "view",
      "type": "function"
    },
    {
      "inputs": [
        {
          "internalType": "uint256",
          "name": "",
          "type": "uint256"
        }
      ],
      "name": "bookingDetails",
      "outputs": [
        {
          "internalType": "uint256",
          "name": "courtId",
          "type": "uint256"
        },
        {
          "internalType": "uint256",
          "name": "timestamp",
          "type": "uint256"
        }
      ],
      "stateMutability": "view",
      "type": "function"
    },
    {
      "inputs": [
        {
          "internalType": "uint256",
          "name": "_courtId",
          "type": "uint256"
        },
        {
          "internalType": "uint256",
          "name": "_timestamp",
          "type": "uint256"
        }
      ],
      "name": "checkAvailability",
      "outputs": [
        {
          "internalType": "bool",
          "name": "",
          "type": "bool"
        }
      ],
      "stateMutability": "view",
      "type": "function"
    },
    {
      "inputs": [],
      "name": "courtCounter",
      "outputs": [
        {
          "internalType": "uint256",
          "name": "",
          "type": "uint256"
        }
      ],
      "stateMutability": "view",
      "type": "function"
    },
    {
      "inputs": [
        {
          "internalType": "uint256",
          "name": "",
          "type": "uint256"
        }
      ],
      "name": "courts",
      "outputs": [
        {
          "internalType": "uint256",
          "name": "id",
          "type": "uint256"
        },
        {
          "internalType": "string",
          "name": "name",
          "type": "string"
        },
        {
          "internalType": "uint256",
          "name": "pricePerHour",
          "type": "uint256"
        },
        {
          "internalType": "bool",
          "name": "isActive",
          "type": "bool"
        }
      ],
      "stateMutability": "view",
      "type": "function"
    },
    {
      "inputs": [
        {
          "internalType": "uint256",
          "name": "tokenId",
          "type": "uint256"
        }
      ],
      "name": "getApproved",
      "outputs": [
        {
          "internalType": "address",
          "name": "",
          "type": "address"
        }
      ],
      "stateMutability": "view",
      "type": "function"
    },
    {
      "inputs": [
        {
          "internalType": "address",
          "name": "owner",
          "type": "address"
        },
        {
          "internalType": "address",
          "name": "operator",
          "type": "address"
        }
      ],
      "name": "isApprovedForAll",
      "outputs": [
        {
          "internalType": "bool",
          "name": "",
          "type": "bool"
        }
      ],
      "stateMutability": "view",
      "type": "function"
    },
    {
      "inputs": [
        {
          "internalType": "uint256",
          "name": "",
          "type": "uint256"
        },
        {
          "internalType": "uint256",
          "name": "",
          "type": "uint256"
        }
      ],
      "name": "isSlotOccupied",
      "outputs": [
        {
          "internalType": "bool",
          "name": "",
          "type": "bool"
        }
      ],
      "stateMutability": "view",
      "type": "function"
    },
    {
      "inputs": [],
      "name": "name",
      "outputs": [
        {
          "internalType": "string",
          "name": "",
          "type": "string"
        }
      ],
      "stateMutability": "view",
      "type": "function"
    },
    {
      "inputs": [],
      "name": "owner",
      "outputs": [
        {
          "internalType": "address",
          "name": "",
          "type": "address"
        }
      ],
      "stateMutability": "view",
      "type": "function"
    },
    {
      "inputs": [
        {
          "internalType": "uint256",
          "name": "tokenId",
          "type": "uint256"
        }
      ],
      "name": "ownerOf",
      "outputs": [
        {
          "internalType": "address",
          "name": "",
          "type": "address"
        }
      ],
      "stateMutability": "view",
      "type": "function"
    },
    {
      "inputs": [],
      "name": "renounceOwnership",
      "outputs": [],
      "stateMutability": "nonpayable",
      "type": "function"
    },
    {
      "inputs": [
        {
          "internalType": "address",
          "name": "from",
          "type": "address"
        },
        {
          "internalType": "address",
          "name": "to",
          "type": "address"
        },
        {
          "internalType": "uint256",
          "name": "tokenId",
          "type": "uint256"
        }
      ],
      "name": "safeTransferFrom",
      "outputs": [],
      "stateMutability": "nonpayable",
      "type": "function"
    },
    {
      "inputs": [
        {
          "internalType": "address",
          "name": "from",
          "type": "address"
        },
        {
          "internalType": "address",
          "name": "to",
          "type": "address"
        },
        {
          "internalType": "uint256",
          "name": "tokenId",
          "type": "uint256"
        },
        {
          "internalType": "bytes",
          "name": "data",
          "type": "bytes"
        }
      ],
      "name": "safeTransferFrom",
      "outputs": [],
      "stateMutability": "nonpayable",
      "type": "function"
    },
    {
      "inputs": [
        {
          "internalType": "address",
          "name": "operator",
          "type": "address"
        },
        {
          "internalType": "bool",
          "name": "approved",
          "type": "bool"
        }
      ],
      "name": "setApprovalForAll",
      "outputs": [],
      "stateMutability": "nonpayable",
      "type": "function"
    },
    {
      "inputs": [
        {
          "internalType": "bytes4",
          "name": "interfaceId",
          "type": "bytes4"
        }
      ],
      "name": "supportsInterface",
      "outputs": [
        {
          "internalType": "bool",
          "name": "",
          "type": "bool"
        }
      ],
      "stateMutability": "view",
      "type": "function"
    },
    {
      "inputs": [],
      "name": "symbol",
      "outputs": [
        {
          "internalType": "string",
          "name": "",
          "type": "string"
        }
      ],
      "stateMutability": "view",
      "type": "function"
    },
    {
      "inputs": [
        {
          "internalType": "uint256",
          "name": "tokenId",
          "type": "uint256"
        }
      ],
      "name": "tokenURI",
      "outputs": [
        {
          "internalType": "string",
          "name": "",
          "type": "string"
        }
      ],
      "stateMutability": "view",
      "type": "function"
    },
    {
      "inputs": [
        {
          "internalType": "address",
          "name": "from",
          "type": "address"
        },
        {
          "internalType": "address",
          "name": "to",
          "type": "address"
        },
        {
          "internalType": "uint256",
          "name": "tokenId",
          "type": "uint256"
        }
      ],
      "name": "transferFrom",
      "outputs": [],
      "stateMutability": "nonpayable",
      "type": "function"
    },
    {
      "inputs": [
        {
          "internalType": "address",
          "name": "newOwner",
          "type": "address"
        }
      ],
      "name": "transferOwnership",
      "outputs": [],
      "stateMutability": "nonpayable",
      "type": "function"
    },
    {
      "inputs": [],
      "name": "withdrawFunds",
      "outputs": [],
      "stateMutability": "nonpayable",
      "type": "function"
    }
  ],
  "bytecode": "0x608060405234801562000010575f80fd5b50336040518060400160405280601381526020017f46757473616c20426f6f6b696e67205061737300000000000000000000000000815250604051806040016040528060078152602001664655545041535360c81b815250815f9081620000789190620001e6565b506001620000878282620001e6565b5050506001600160a01b038116620000b857604051631e4fbdf760e01b81525f600482015260240160405180910390fd5b620000c381620000f7565b5060017f9b779b17422d0df92223018b32b4d1fa46e071723d6817e2486d003becc55f00555f6007819055600855620002b2565b600680546001600160a01b038381166001600160a01b0319831681179093556040519116919082907f8be0079c531659141344cd1fd0a4f28419497f9722a3daafe3b4186f6b6457e0905f90a35050565b634e487b7160e01b5f52604160045260245ffd5b600181811c908216806200017157607f821691505b6020821081036200019057634e487b7160e01b5f52602260045260245ffd5b50919050565b601f821115620001e157805f5260205f20601f840160051c81016020851015620001bd5750805b601f840160051c820191505b81811015620001de575f8155600101620001c9565b50505b505050565b81516001600160401b0381111562000202576200020262000148565b6200021a816200021384546200015c565b8462000196565b602080601f83116001811462000250575f8415620002385750858301515b5f19600386901b1c1916600185901b178555620002aa565b5f85815260208120601f198616915b8281101562000280578886015182559484019460019091019084016200025f565b50858210156200029e57878501515f19600388901b60f8161c191681555b505060018460011b0185555b505050505050565b611cab80620002c05f395ff3fe608060405260043610610161575f3560e01c8063715018a6116100cd578063b88d4fde11610087578063d287ac4211610062578063d287ac4214610463578063e985e9c514610478578063f2fde38b14610497578063fba10671146104b6575f80fd5b8063b88d4fde146103de578063c87b56dd146103fd578063ca1772f61461041c575f80fd5b8063715018a61461032c5780638a9b2895146103405780638da5cb5b1461035557806395d89b4114610372578063a22cb46514610386578063aed28229146103a5575f80fd5b806324600fc31161011e57806324600fc31461026057806342842e0e146102745780636352211e1461029357806368f18ac5146102b25780636de482c8146102c557806370a08231146102ff575f80fd5b806301ffc9a71461016557806306fdde0314610199578063081812fc146101ba578063095ea7b3146101f15780631f5a0dd21461021257806323b872dd14610241575b5f80fd5b348015610170575f80fd5b5061018461017f366004611703565b6104d5565b60405190151581526020015b60405180910390f35b3480156101a4575f80fd5b506101ad610526565b604051610190919061176b565b3480156101c5575f80fd5b506101d96101d436600461177d565b6105b5565b6040516001600160a01b039091168152602001610190565b3480156101fc575f80fd5b5061021061020b3660046117af565b6105dc565b005b34801561021d575f80fd5b5061023161022c36600461177d565b6105eb565b60405161019094939291906117d7565b34801561024c575f80fd5b5061021061025b366004611807565b61069d565b34801561026b575f80fd5b5061021061072b565b34801561027f575f80fd5b5061021061028e366004611807565b6108b4565b34801561029e575f80fd5b506101d96102ad36600461177d565b6108d3565b6102106102c0366004611840565b6108dd565b3480156102d0575f80fd5b506101846102df366004611840565b5f918252600b6020908152604080842092845291905290205460ff161590565b34801561030a575f80fd5b5061031e610319366004611860565b610c29565b604051908152602001610190565b348015610337575f80fd5b50610210610c6e565b34801561034b575f80fd5b5061031e60075481565b348015610360575f80fd5b506006546001600160a01b03166101d9565b34801561037d575f80fd5b506101ad610c7f565b348015610391575f80fd5b506102106103a0366004611879565b610c8e565b3480156103b0575f80fd5b506101846103bf366004611840565b600b60209081525f928352604080842090915290825290205460ff1681565b3480156103e9575f80fd5b506102106103f83660046118c6565b610c99565b348015610408575f80fd5b506101ad61041736600461177d565b610cb1565b348015610427575f80fd5b5061044e61043636600461177d565b600a6020525f90815260409020805460019091015482565b60408051928352602083019190915201610190565b34801561046e575f80fd5b5061031e60085481565b348015610483575f80fd5b5061018461049236600461199b565b610d22565b3480156104a2575f80fd5b506102106104b1366004611860565b610d4f565b3480156104c1575f80fd5b506102106104d03660046119cc565b610d8c565b5f6001600160e01b031982166380ac58cd60e01b148061050557506001600160e01b03198216635b5e139f60e01b145b8061052057506301ffc9a760e01b6001600160e01b03198316145b92915050565b60605f805461053490611a3d565b80601f016020809104026020016040519081016040528092919081815260200182805461056090611a3d565b80156105ab5780601f10610582576101008083540402835291602001916105ab565b820191905f5260205f20905b81548152906001019060200180831161058e57829003601f168201915b5050505050905090565b5f6105bf82610f3c565b505f828152600460205260409020546001600160a01b0316610520565b6105e7828233610f74565b5050565b60096020525f90815260409020805460018201805491929161060c90611a3d565b80601f016020809104026020016040519081016040528092919081815260200182805461063890611a3d565b80156106835780601f1061065a57610100808354040283529160200191610683565b820191905f5260205f20905b81548152906001019060200180831161066657829003601f168201915b50505050600283015460039093015491929160ff16905084565b6001600160a01b0382166106cb57604051633250574960e11b81525f60048201526024015b60405180910390fd5b5f6106d7838333610f81565b9050836001600160a01b0316816001600160a01b031614610725576040516364283d7b60e01b81526001600160a01b03808616600483015260248201849052821660448201526064016106c2565b50505050565b610733611073565b61073b6110a0565b47806107895760405162461bcd60e51b815260206004820152601760248201527f4572726f723a2042616c616e6365206973207a65726f2e00000000000000000060448201526064016106c2565b6006546001600160a01b03166001600160a01b03167feaff4b37086828766ad3268786972c0cd24259d4c87a80f9d3963a3c3d999b0d826040516107cf91815260200190565b60405180910390a25f6107ea6006546001600160a01b031690565b6001600160a01b0316826040515f6040518083038185875af1925050503d805f8114610831576040519150601f19603f3d011682016040523d82523d5f602084013e610836565b606091505b505090508061089a5760405162461bcd60e51b815260206004820152602a60248201527f4572726f723a20436f6e74726163742062616c616e636520776974686472617760448201526930b6103330b4b632b21760b11b60648201526084016106c2565b50506108b260015f80516020611c5683398151915255565b565b6108ce83838360405180602001604052805f815250610c99565b505050565b5f61052082610f3c565b6108e56110a0565b5f60095f8481526020019081526020015f206040518060800160405290815f820154815260200160018201805461091b90611a3d565b80601f016020809104026020016040519081016040528092919081815260200182805461094790611a3d565b80156109925780601f1061096957610100808354040283529160200191610992565b820191905f5260205f20905b81548152906001019060200180831161097557829003601f168201915b50505091835250506002820154602082015260039091015460ff1615156040909101526060810151909150610a175760405162461bcd60e51b815260206004820152602560248201527f4572726f723a2053656c656374656420636f75727420697320756e617661696c60448201526430b136329760d91b60648201526084016106c2565b428211610a795760405162461bcd60e51b815260206004820152602a60248201527f4572726f723a20426f6f6b696e672074696d65206d75737420626520696e2074604482015269343290333aba3ab9329760b11b60648201526084016106c2565b5f838152600b6020908152604080832085845290915290205460ff1615610af55760405162461bcd60e51b815260206004820152602a60248201527f4572726f723a20546869732074696d6520736c6f7420697320616c7265616479604482015269103932b9b2b93b32b21760b11b60648201526084016106c2565b80604001513414610b675760405162461bcd60e51b815260206004820152603660248201527f4572726f723a205472616e73666572726564207061796d656e7420646f6573206044820152753737ba1036b0ba31b4103437bab9363c903930ba329760511b60648201526084016106c2565b60088054905f610b7683611a75565b90915550505f838152600b602090815260408083208584528252808320805460ff1916600190811790915581518083018352878152808401878152600880548752600a9095529290942093518455905192019190915554610bd89033906110bb565b600854604051338152839185917f24fbc988e4cc98d0035547e9272aa07d01b1d06f0333d31ff38bb8a132276c589060200160405180910390a4506105e760015f80516020611c5683398151915255565b5f6001600160a01b038216610c53576040516322718ad960e21b81525f60048201526024016106c2565b506001600160a01b03165f9081526003602052604090205490565b610c76611073565b6108b25f6110d4565b60606001805461053490611a3d565b6105e7338383611125565b610ca484848461069d565b61072533858585856111ec565b6060610cbc82610f3c565b505f610cd260408051602081019091525f815290565b90505f815111610cf05760405180602001604052805f815250610d1b565b80610cfa84611314565b604051602001610d0b929190611a99565b6040516020818303038152906040525b9392505050565b6001600160a01b039182165f90815260056020908152604080832093909416825291909152205460ff1690565b610d57611073565b6001600160a01b038116610d8057604051631e4fbdf760e01b81525f60048201526024016106c2565b610d89816110d4565b50565b610d94611073565b81610de15760405162461bcd60e51b815260206004820152601b60248201527f4572726f723a20436f757274206e616d652072657175697265642e000000000060448201526064016106c2565b5f8111610e3f5760405162461bcd60e51b815260206004820152602660248201527f4572726f723a2052617465206d7573742062652067726561746572207468616e604482015265103d32b9379760d11b60648201526084016106c2565b60078054905f610e4e83611a75565b91905055506040518060800160405280600754815260200184848080601f0160208091040260200160405190810160405280939291908181526020018383808284375f9201829052509385525050506020808301859052600160409384018190526007548352600982529290912083518155908301519091820190610ed39082611b0b565b5060408281015160028301556060909201516003909101805460ff191691151591909117905560075490517f0bffa2cff5475fb8c4ab23cc42b3b4838c80ee94486fb09f83747ea4d4db6b9690610f2f90869086908690611bc7565b60405180910390a2505050565b5f818152600260205260408120546001600160a01b03168061052057604051637e27328960e01b8152600481018490526024016106c2565b6108ce83838360016113a4565b5f828152600260205260408120546001600160a01b0390811690831615610fad57610fad8184866114a8565b6001600160a01b03811615610fe757610fc85f855f806113a4565b6001600160a01b0381165f90815260036020526040902080545f190190555b6001600160a01b03851615611015576001600160a01b0385165f908152600360205260409020805460010190555b5f8481526002602052604080822080546001600160a01b0319166001600160a01b0389811691821790925591518793918516917fddf252ad1be2c89b69c2b068fc378daa952ba7f163c4a11628f55a4df523b3ef91a4949350505050565b6006546001600160a01b031633146108b25760405163118cdaa760e01b81523360048201526024016106c2565b6110a861150c565b60025f80516020611c5683398151915255565b6105e7828260405180602001604052805f81525061153b565b600680546001600160a01b038381166001600160a01b0319831681179093556040519116919082907f8be0079c531659141344cd1fd0a4f28419497f9722a3daafe3b4186f6b6457e0905f90a35050565b6001600160a01b03831661114e5760405163a9fbf51f60e01b81525f60048201526024016106c2565b6001600160a01b03821661118057604051630b61174360e31b81526001600160a01b03831660048201526024016106c2565b6001600160a01b038381165f81815260056020908152604080832094871680845294825291829020805460ff191686151590811790915591519182527f17307eab39ab6107e8899845ad3d59bd9653f200f220920489ca2b5937696c31910160405180910390a3505050565b6001600160a01b0383163b1561130d57604051630a85bd0160e11b81526001600160a01b0384169063150b7a029061122e908890889087908790600401611bfe565b6020604051808303815f875af1925050508015611268575060408051601f3d908101601f1916820190925261126591810190611c3a565b60015b6112cf573d808015611295576040519150601f19603f3d011682016040523d82523d5f602084013e61129a565b606091505b5080515f036112c757604051633250574960e11b81526001600160a01b03851660048201526024016106c2565b805160208201fd5b6001600160e01b03198116630a85bd0160e11b1461130b57604051633250574960e11b81526001600160a01b03851660048201526024016106c2565b505b5050505050565b60605f61132083611552565b60010190505f8167ffffffffffffffff81111561133f5761133f6118b2565b6040519080825280601f01601f191660200182016040528015611369576020820181803683370190505b5090508181016020015b5f19016f181899199a1a9b1b9c1cb0b131b232b360811b600a86061a8153600a850494508461137357509392505050565b80806113b857506001600160a01b03821615155b15611479575f6113c784610f3c565b90506001600160a01b038316158015906113f35750826001600160a01b0316816001600160a01b031614155b801561140657506114048184610d22565b155b1561142f5760405163a9fbf51f60e01b81526001600160a01b03841660048201526024016106c2565b81156114775783856001600160a01b0316826001600160a01b03167f8c5be1e5ebec7d5bd14f71427d1e84f3dd0314c0f7b2291e5b200ac8c7c3b92560405160405180910390a45b505b50505f90815260046020526040902080546001600160a01b0319166001600160a01b0392909216919091179055565b6114b3838383611629565b6108ce576001600160a01b0383166114e157604051637e27328960e01b8152600481018290526024016106c2565b60405163177e802f60e01b81526001600160a01b0383166004820152602481018290526044016106c2565b5f80516020611c56833981519152546002036108b257604051633ee5aeb560e01b815260040160405180910390fd5b611545838361168d565b6108ce335f8585856111ec565b5f8072184f03e93ff9f4daa797ed6e38ed64bf6a1f0160401b83106115905772184f03e93ff9f4daa797ed6e38ed64bf6a1f0160401b830492506040015b6d04ee2d6d415b85acef810000000083106115bc576d04ee2d6d415b85acef8100000000830492506020015b662386f26fc1000083106115da57662386f26fc10000830492506010015b6305f5e10083106115f2576305f5e100830492506008015b612710831061160657612710830492506004015b60648310611618576064830492506002015b600a83106105205760010192915050565b5f6001600160a01b038316158015906116855750826001600160a01b0316846001600160a01b0316148061166257506116628484610d22565b8061168557505f828152600460205260409020546001600160a01b038481169116145b949350505050565b6001600160a01b0382166116b657604051633250574960e11b81525f60048201526024016106c2565b5f6116c283835f610f81565b90506001600160a01b038116156108ce576040516339e3563760e11b81525f60048201526024016106c2565b6001600160e01b031981168114610d89575f80fd5b5f60208284031215611713575f80fd5b8135610d1b816116ee565b5f5b83811015611738578181015183820152602001611720565b50505f910152565b5f815180845261175781602086016020860161171e565b601f01601f19169290920160200192915050565b602081525f610d1b6020830184611740565b5f6020828403121561178d575f80fd5b5035919050565b80356001600160a01b03811681146117aa575f80fd5b919050565b5f80604083850312156117c0575f80fd5b6117c983611794565b946020939093013593505050565b848152608060208201525f6117ef6080830186611740565b60408301949094525090151560609091015292915050565b5f805f60608486031215611819575f80fd5b61182284611794565b925061183060208501611794565b9150604084013590509250925092565b5f8060408385031215611851575f80fd5b50508035926020909101359150565b5f60208284031215611870575f80fd5b610d1b82611794565b5f806040838503121561188a575f80fd5b61189383611794565b9150602083013580151581146118a7575f80fd5b809150509250929050565b634e487b7160e01b5f52604160045260245ffd5b5f805f80608085870312156118d9575f80fd5b6118e285611794565b93506118f060208601611794565b925060408501359150606085013567ffffffffffffffff80821115611913575f80fd5b818701915087601f830112611926575f80fd5b813581811115611938576119386118b2565b604051601f8201601f19908116603f01168101908382118183101715611960576119606118b2565b816040528281528a6020848701011115611978575f80fd5b826020860160208301375f60208483010152809550505050505092959194509250565b5f80604083850312156119ac575f80fd5b6119b583611794565b91506119c360208401611794565b90509250929050565b5f805f604084860312156119de575f80fd5b833567ffffffffffffffff808211156119f5575f80fd5b818601915086601f830112611a08575f80fd5b813581811115611a16575f80fd5b876020828501011115611a27575f80fd5b6020928301989097509590910135949350505050565b600181811c90821680611a5157607f821691505b602082108103611a6f57634e487b7160e01b5f52602260045260245ffd5b50919050565b5f60018201611a9257634e487b7160e01b5f52601160045260245ffd5b5060010190565b5f8351611aaa81846020880161171e565b835190830190611abe81836020880161171e565b01949350505050565b601f8211156108ce57805f5260205f20601f840160051c81016020851015611aec5750805b601f840160051c820191505b8181101561130d575f8155600101611af8565b815167ffffffffffffffff811115611b2557611b256118b2565b611b3981611b338454611a3d565b84611ac7565b602080601f831160018114611b6c575f8415611b555750858301515b5f19600386901b1c1916600185901b17855561130b565b5f85815260208120601f198616915b82811015611b9a57888601518255948401946001909101908401611b7b565b5085821015611bb757878501515f19600388901b60f8161c191681555b5050505050600190811b01905550565b60408152826040820152828460608301375f606084830101525f6060601f19601f8601168301019050826020830152949350505050565b6001600160a01b03858116825284166020820152604081018390526080606082018190525f90611c3090830184611740565b9695505050505050565b5f60208284031215611c4a575f80fd5b8151610d1b816116ee56fe9b779b17422d0df92223018b32b4d1fa46e071723d6817e2486d003becc55f00a264697066735822122046e5f09356ec1edf4d777ff3e885ed5a5457479a52f97b1dcabd1d27b00313b564736f6c63430008180033",
  "linkReferences": {},
  "deployedLinkReferences": {}
}